:020000040800F2
:1000000000000120050B0008DD020008DF020008E7
:10001000E1020008E3020008E50200080000000019
:10002000000000000000000000000000E7020008DF
:10003000E902000800000000EB020008ED020008E1
:10004000550B0008550B0008550B0008550B000810
:10005000550B0008550B0008550B0008550B000800
:10006000550B0008550B0008550B0008550B0008F0
:10007000550B0008550B0008550B0008550B0008E0
:10008000550B0008550B0008550B00080000000038
:10009000000000000000000000000000550B0008F8
:1000A000550B0008550B0008550B0008550B0008B0
:1000B000550B0008550B0008550B0008550B0008A0
:1000C000550B0008550B0008550B0008550B000890
:1000D000550B0008550B0008550B000800000000E8
:1000E000550B0008550B0008550B000800000000D8
:1000F000000000000000000000000000550B000898
:1001000000000000550B0008550B0008550B0008B7
:1001100000000000000000000000000000000000DF
:10012000550B0008550B0008550B0008550B00082F
:10013000550B000800000000000000000000000057
:10014000000000000000000000000000550B000847
:10015000550B0008550B0008550B0008550B0008FF
:10016000550B0008550B00080000000000000000BF
:10017000000000000000000000000000000000007F
:1001800000000000550B0008000000000000000007
:04019000550B000803
:1001940053B94AB9002908BF00281CBF4FF0FF31EA
:1001A4004FF0FF3000F00CB8ADF1080C6DE904CE4F
:1001B40000F0FCFCDDF804E0DDE9022304B0704744
:1001C400704700BF08B5064B1A783AB9054A1AB108
:1001D4000548AFF30080024B01221A7008BD00BF2E
:1001E4000C00002000000000D00E000808B5034BEE
:1001F4001BB103490348AFF3008008BD00000000B1
:1002040010000020D00E000882B000230193064B9A
:100214001A6B42F001021A631B6B03F00103019392
:10022400019B02B0704700BF0038024072B6FEE77F
:1002340010B594B008AC30220021204600F089FCAF
:100244000023039304930593069307930193194A98
:10025400116C41F080511164126C02F080520192D1
:10026400019A029314490A6822F4404242F400427B
:100274000A600A6802F440420292029A0222089238
:1002840001220B9210220C920E93204600F04CF89F
:1002940060B90F23039301460490059006900790DC
:1002A40003A800F093FA18B914B010BDFFF7BEFF0D
:1002B400FFF7BCFF003802400070004008B500F0B2
:1002C400C9FBFFF7B5FFFFF79FFF4FF4FA6000F09B
:1002D400EDFB00F009FCFEE7FEE7FEE7FEE7FEE7C4
:1002E400FEE770477047704708B500F0CDFB08BDC6
:1002F40082B0002100910B4B5A6C42F480425A6444
:100304005A6C02F480420092009A01911A6C42F0F5
:1003140080521A641B6C03F080530193019B02B05A
:10032400704700BF00380240002800F0E28170B539
:1003340082B00446036813F0010F3BD09B4B9B68CB
:1003440003F00C03042B2CD0984B9B6803F00C0394
:10035400082B21D06368B3F5803F4FD0B3F5A02FAD
:1003640052D0924B1A6822F480321A601A6822F42E
:1003740080221A606368002B50D000F091FB054680
:100384008A4B1B6813F4003F14D100F089FB401B17
:100394006428F5D90320B3E1844B5B6813F4800F20
:1003A400D8D0824B1B6813F4003F03D06368002B42
:1003B40000F0A181236813F0020F54D07B4B9B689B
:1003C40013F00C0F3ED0794B9B6803F00C03082B01
:1003D40033D0E368002B68D0754B01221A6000F01B
:1003E4005FFB0546714B1B6813F0020F54D100F0FC
:1003F40057FB401B0228F5D9032081E16B4A13689F
:1004040043F480331360B5E7684B1A6842F48022E2
:100414001A601A6842F480321A60ABE700F040FBBD
:100424000546624B1B6813F4003FC3D000F038FB51
:10043400401B6428F5D9032062E15C4B5B6813F42C
:10044400800FC6D1594B1B6813F0020F03D0E36829
:10045400012B40F05281554A136823F0F8032169B7
:1004640043EAC1031360236813F0080F42D06369A1
:100474006BB34F4B0122C3F8802E00F011FB0546ED
:100484004A4B5B6F13F0020F34D100F009FB401BA1
:100494000228F5D9032033E1444A136823F0F80312
:1004A400216943EAC1031360DDE7414B00221A606E
:1004B40000F0F6FA05463D4B1B6813F0020FD2D04C
:1004C40000F0EEFA401B0228F5D9032018E1384B5E
:1004D4000022C3F8802E00F0E3FA0546334B5B6F2D
:1004E40013F0020F06D000F0DBFA401B0228F5D906
:1004F400032005E1236813F0040F79D02B4B1B6C08
:1005040013F0805F34D100230193284B1A6C42F01E
:1005140080521A641B6C03F080530193019B0123E6
:100524001E46244B1B6813F4807F24D0A368012B40
:1005340035D0052B40D01D4B1A6F22F001021A67EB
:100544001A6F22F004021A67A368002B3ED000F051
:10055400A7FA0546154B1B6F13F0020F47D100F0A5
:100564009FFA401B41F288339842F3D90320C7E035
:1005740000231E46D5E70F4A136843F480731360C3
:1005840000F08EFA05460B4B1B6813F4807FCDD127
:1005940000F086FA401B0228F5D90320B0E0034A94
:1005A400136F43F001031367CEE700BF0038024026
:1005B4000000474200700040584B1A6F42F004029A
:1005C4001A671A6F42F001021A67BDE700F068FA71
:1005D4000546524B1B6F13F0020F08D000F060FA6F
:1005E400401B41F288339842F3D9032088E0EEB9E6
:1005F400A369002B00F08380484A926802F00C0241
:10060400082A51D0022B17D0454B00221A6600F05D
:1006140047FA0446414B1B6813F0007F42D000F0B8
:100624003FFA001B0228F5D9032069E03B4A136C0A
:1006340023F080531364DBE7394B00221A6600F081
:100644002FFA0546354B1B6813F0007F06D000F0E7
:1006540027FA401B0228F5D9032051E0E369226AF6
:100664001343626A43EA8213A26A5208013A43EAD4
:100674000243E26A43EA0263284A5360284B012298
:100684001A6600F00DFA0446244B1B6813F0007F31
:1006940006D100F005FA001B0228F5D903202FE04B
:1006A40000202DE000202BE0012B2BD01B4B5B689E
:1006B40003F48001E269914226D103F03F02216AEA
:1006C4008A4223D1616A47F6C0721A40B2EB811F95
:1006D4001ED103F44031A26A5208013AB1EB024F31
:1006E40018D103F07063E26AB3EB026F14D10020F7
:1006F40006E001207047012002E0012000E01846D6
:1007040002B070BD0120FBE70120F9E70120F7E703
:100714000120F5E70120F3E70120F1E7003802406A
:100724000000474208B5264B9B6803F00C03042BDA
:1007340041D0082B41D1224B5A6802F03F025B683A
:1007440013F4800F12D01E4B5968C1F388111D4851
:100754000023A1FB0001FFF71BFD194B5B68C3F3EA
:10076400014301335B00B0FBF3F008BD144B586840
:10077400C0F388104FEA401CBCEB000C6EEB0E0E6D
:100784004FEA8E1343EA9C634FEA8C11B1EB0C01E0
:1007940063EB0E03DB0043EA5173C90011EB000C59
:1007A40043F10003990200234FEA8C2041EA9C5153
:1007B400FFF7EEFCD1E70348D7E70348D5E700BFCE
:1007C4000038024040787D010024F400002800F045
:1007D4009B8070B50D4604464F4B1B6803F007031E
:1007E4008B4208D2CBB24C4A1370136803F0070350
:1007F4008B4240F08B80236813F0020F17D013F064
:10080400040F04D0454A936843F4E053936023688B
:1008140013F0080F04D0414A936843F46043936093
:100824003E4A936823F0F003A1680B439360236866
:1008340013F0010F32D06368012B21D09A1E012AD4
:1008440025D9364A126812F0020F61D033498A68FA
:1008540022F0030213438B6000F022F906462F4B6B
:100864009B6803F00C036268B3EB820F16D000F0B0
:1008740017F9801B41F288339842F0D9032042E0F3
:10088400264A126812F4003FE0D101203BE0234ADB
:10089400126812F0007FD9D1012034E01E4B1B688E
:1008A40003F00703AB4207D9EAB21B4B1A701B686B
:1008B40003F00703AB422DD1236813F0040F06D0D5
:1008C400164A936823F4E053E1680B43936023686A
:1008D40013F0080F07D0114A936823F46043216989
:1008E40043EAC1039360FFF71DFF0C4B9B68C3F3FE
:1008F40003130B4AD35CD8400A4B18600A4B1868A0
:1009040000F082F8002070BD012070470120FAE752
:100914000120F8E70120F6E7003C024000380240DD
:10092400E80E00080800002004000020002808DB6E
:100934000901C9B200F1604000F5614080F800137C
:10094400704700F00F000901C9B2014B19547047F8
:1009540014ED00E000B500F00700A0F1030CBCF1B9
:10096400040F07D8C0F1070E0430062806D84FF04C
:10097400000C03E04FF0040E4FF0000C4FF0FF3377
:1009840003FA0EF021EA000101FA0CF103FA0CF368
:1009940022EA030241EA020000BD0000074AD368CC
:1009A40023F4E0631B041B0C000200F4E060034327
:1009B40043F0BF6343F40033D360704700ED00E0BD
:1009C40010B50446054BD868C0F30220FFF7C2FFF8
:1009D40001462046FFF7AAFF10BD00BF00ED00E06E
:1009E4000138B0F1807F0BD24FF0E0235861054A03
:1009F400F02182F823100020986107221A617047C1
:100A04000120704700ED00E010B504460E4B186855
:100A14000E4B1A784FF47A73B3FBF2F3B0FBF3F096
:100A2400FFF7DEFF68B90F2C01D901200AE0024666
:100A340021464FF0FF30FFF7C3FF054B1C60002039
:100A440000E0012010BD00BF0800002000000020CD
:100A54000400002008B50B4B1A6842F400721A60B7
:100A64001A6842F480621A601A6842F480721A604A
:100A74000320FFF793FF0F20FFF7C6FFFFF738FCB3
:100A8400002008BD003C0240034A1168034B1B7858
:100A94000B441360704700BF2800002000000020B2
:100AA400014B1868704700BF2800002038B5044681
:100AB400FFF7F6FF0546B4F1FF3F02D0044B1B7865
:100AC4001C44FFF7EDFF401BA042FAD338BD00BF22
:100AD40000000020034AD2F8883043F47003C2F8BF
:100AE4008830704700ED00E008B5044B1A685B6875
:100AF40072B682F30888984708BD00BF004000081A
:100B0400DFF834D0FFF7E6FF0C480D490D4A002307
:100B140002E0D458C4500433C4188C42F9D30A4AAE
:100B24000A4C002301E013600432A242FBD300F01C
:100B340019F8FFF7C3FB70470000012000000020F4
:100B44000C000020080F00080C0000202C000020DE
:100B5400FEE702440346934200D1704703F8011BA9
:100B6400F9E7000070B50D4B0D4C00261D1BB6EBCC
:100B7400A50F09D100F0AAF90A4C0B4B00261D1B46
:100B8400B6EBA50F05D170BD54F8043B9847013668
:100B9400EDE754F8043B98470136F1E7000F0008ED
:100BA400000F0008000F0008040F00082DE9F047AB
:100BB40082B00646DDF828E00846B4460D46002B10
:100BC4004ED18A4214466DD9B2FA82F242B1C2F1D0
:100BD4002003954026FA03F394401D4306FA02FCD1
:100BE400260CA7B2B5FBF6F14FEA1C4306FB1155E0
:100BF40043EA054301FB07F0984209D9E31801F1E0
:100C0400FF3580F00381984240F200810239234489
:100C14001B1A1FFA8CFCB3FBF6F006FB10334CEAEC
:100C2400034C00FB07F363450AD914EB0C0C00F1E9
:100C3400FF3580F0ED80634540F2EA80A444023839
:100C440040EA0140ACEB030C0021BEF1000F04D0DC
:100C54002CFA02F30022CEE9003202B0BDE8F0879C
:100C64008B4209D9BEF1000F01D0CEE90061002109
:100C7400084602B0BDE8F087B3FA83F117460029AD
:100C84004DD1834202D3B24200F20F81B6EB070C7E
:100C940060EB030301201D46BEF1000FDDD0CEE959
:100CA40000C5DAE7002A00F098801A46B4FA84F303
:100CB400002B40F0AF800B1B270CA6B20121B3FB25
:100CC400F7F54FEA1C4007FB153340EA034306FBE4
:100CD40005F8984507D9E31805F1FF3002D2984585
:100CE40000F2E8800546A3EB08031FFA8CFCB3FB73
:100CF400F7F007FB10334CEA034C06FB00F36345A3
:100D040008D914EB0C0C00F1FF3602D2634500F253
:100D1400CE803046ACEB030C40EA054095E7C1F1C8
:100D240020058B4022FA05FC4CEA030C00FA01F47E
:100D340026FA05F3E84002FA01F943EA04084FEA07
:100D44001C4206FA01FAB0FBF2F71FFA8CF602FB1A
:100D540017004FEA184444EA004407FB06F0A04297
:100D64000AD91CEB040407F1FF3380F09C80A042F5
:100D740040F29980023F6444241A1FFA88F3B4FBBA
:100D8400F2F002FB104443EA044300FB06F69E42E1
:100D940009D91CEB030300F1FF3480F082809E42EA
:100DA4007FD90238634440EA0740A0FB09749B1BC7
:100DB400A3423E46A04664D361D0BEF1000F0AD0E0
:100DC400BAEB060263EB080303FA05F5CA401543C0
:100DD400CB40CEE9005300213FE7730843EAC173D7
:100DE4004A08190C41EA02414FEAC67C9BB2B2FBA5
:100DF400F4F02646A04627461F2243EA0143B1FBEE
:100E0400F4F1A3EB080341EA004158E72946FFE661
:100E1400284615E71A46C3F120019C4026FA01F33F
:100E240020FA01F190400343270C06FA02FCB1FBBF
:100E3400F7F0A6B207FB1015190C41EA054100FBB7
:100E440006F58D423BD9611801D28D4220D8491B49
:100E54000138B1FBF7F5019505FB06F8019D9BB23E
:100E640007FB151143EA0143434526D2E31805F174
:100E7400FF31C6D24345C4D2A91E2344C1E7BA45B3
:100E84009BD2B7EB090664EB0C040138A04694E747
:100E9400651B29440238B1FBF7F5019505FB06F8FB
:100EA400DCE720467FE71F4666E70846F4E6A444ED
:100EB40002382FE7023D234415E70199A1E7491BB6
:100EC400B1FBF7F5019505FB06F8C7E7F8B500BFD8
:100ED400F8BC08BC9E467047F8B500BFF8BC08BC17
:040EE4009E4670476F
:100EE80000000000000000000102030406070809D2
:080EF800B8FCFF7F01000000BF
:040F0000F1010008F3
:040F0400C901000817
:0C0F080001000000100000000024F400B4
:0400000508000B05DF
:00000001FF
